:020000040800F2
:1000000024100020651500088D21000899210008A2
:10001000A1210008A9210008B1210008000000006A
:10002000000000000000000000000000B9210008EE
:10003000C521000800000000D1210008DD210008D2
:10004000D1150008D1150008D1150008D1150008F8
:10005000D1150008D1150008D1150008D1150008E8
:10006000D1150008D1150008D11500082D2200086F
:10007000D1150008D1150008D1150008D1150008C8
:10008000D1150008D1150008D1150008D1150008B8
:10009000D1150008D1150008D1150008D1150008A8
:1000A000D1150008D1150008D1150008D115000898
:1000B000D1150008D1150008D1150008D115000888
:1000C000D1150008D1150008D1150008D115000878
:1000D000D1150008D1150008D1150008D115000868
:1000E000D1150008D1150008E9210008D115000834
:1000F000D1150008D1150008D1150008D115000848
:10010000D1150008D1150008D1150008D115000837
:10011000D1150008D1150008D1150008D115000827
:10012000D1150008D1150008D1150008D115000817
:10013000D1150008D1150008D1150008D115000807
:10014000D1150008D1150008D11500081D2200089E
:10015000D1150008D1150008D1150008D1150008E7
:10016000D1150008D1150008D1150008D1150008D7
:10017000D1150008D1150008D1150008D1150008C7
:10018000D1150008D115000890B484B000AF034623
:100190000A46FB711346BB710023FB60BB7903F079
:1001A00003039B000F2202FA03F3FB601649BB799D
:1001B0009B08DBB21846144ABB799B08DBB20233BA
:1001C00052F82320FB68DB431A40831C41F82320AC
:1001D0000D48BB799B08DBB21C460B4ABB799B08D8
:1001E000DBB2023352F82320F979BB7903F0030321
:1001F0009B0001FA03F31A43A31C40F82320103795
:10020000BD4690BC704700BF0038014080B485B047
:1002100000AF78600023FB607B68DB684FF0FF3243
:100220005A607B68DB684FF0FF325A61FB7B43F01A
:100230008003FB737B7B43F008037B737B68DB6885
:10024000FA689A611437BD465DF8047B704700BFB9
:1002500080B586B000AF78600023FB7400237B611B
:100260000023FB60032002F0E5FD7B68DB681B696F
:10027000FB607B6901337B617B69174A934201D93B
:10028000002324E0FB68DB0FDBB2002BEAD0002365
:100290007B61FB6843F00103FB607B68DB68FA6805
:1002A0001A617B68DB681B69FB607B6901337B61DA
:1002B0007B69094A934200D905E0FB6803F001031A
:1002C000DBB2012BEDD0032002F0B4FDFB7C18461D
:1002D0001837BD4680BD00BF400D030080B489B013
:1002E00000AFF860B96011461A460B46FB71134621
:1002F000BB800023FB76FB68DB78002B22D1002338
:100300007B610023FB61BB880333002B00DA0333DE
:100310009B107B61FB79FA6832339B0013449B6826
:100320003B610023FB6109E0BB681A683B691A6006
:10033000FB690133FB61BB680433BB60FA697B690D
:100340009A42F1D3FB7E18462437BD465DF8047B04
:10035000704700BF80B489B000AFF860B960134641
:10036000FB800023FB61FB880333002B00DA03339F
:100370009B10BB61FB68D3F8D0307B610023FB612D
:1003800009E07B691A68BB681A60FB690133FB618D
:10039000BB680433BB60FA69BB699A42F1D3BB689E
:1003A00018462437BD465DF8047B704780B487B09B
:1003B00000AF78600B46FB7000233B610023FB73AA
:1003C0007B680022DA707B6801229A707B68402289
:1003D0009A80FB78012B13D14FF0A0433B617B68DF
:1003E0000122DA727B6808221A707B6804225A7034
:1003F0007B684FF4A072DA807B6802221A7211E0E7
:10040000FB78002B0ED1454B3B617B680022DA72F2
:100410007B680C221A707B6806225A707B684FF446
:10042000A062DA803A697B68DA603B6903F50063B1
:100430001A467B681A6100237B611CE07B695A01C4
:100440003B69134403F5106319467A687B690433EA
:100450009B00134499607B695A013B69134403F57F
:10046000306319467A687B6914339B0013445960E2
:100470007B6901337B617B685B781A467B699A42B2
:10048000DCD83B6903F580631A467B685A613B6997
:1004900003F588631A467B68C3F8CC2000237B6190
:1004A0000FE07B695A013B69134403F5A0631946C9
:1004B0007A687B6922339B00134499607B6901331E
:1004C0007B617B681B781A467B699A42E9D80023D6
:1004D0007B610FE07B691A033B69134403F580538A
:1004E00019467A687B6932339B00134499607B69B3
:1004F00001337B617B681B781A467B699A42E9D895
:100500003B6903F560631A467B68C3F80C21FB7BEB
:1005100018461C37BD465DF8047B70470000044058
:1005200080B588B000AF78600023FB770023BB6103
:1005300000237B610023FB607B681B7A012B4FD17A
:100540007B68DB689B6B7B61BB7D6FF30003BB75D6
:100550007B685B7A002B03D0BB7D43F01003BB7537
:100560007B68DB687A699A630023BB617B68DB6820
:10057000DB68BB613B7E6FF386133B76BB7E6FF31C
:100580008613BB763B7E43F010033B763B7E6FF3D6
:10059000C3033B763B7E6FF3C7133B76BB7E6FF3A3
:1005A0004103BB76BB7E6FF3C303BB767B68DB681E
:1005B000BA69DA607868FFF74BFE7B68DB78012B5D
:1005C00040F082803B7B052262F344033B733B7B1C
:1005D00043F020033B737B68DB68FA689A6073E042
:1005E0007B68DB68DB68BB613B7E43F040033B76A6
:1005F0007B68DB68BA69DA607868FFF729FE002358
:100600007B61BB7D43F00103BB757B681B7A032BC9
:1006100003D1BB7D43F00203BB75BB7D43F00403F4
:10062000BB75BB7D43F00803BB75BB7D43F0200366
:10063000BB757B685B7A002B03D0BB7D43F0100356
:10064000BB757B68DB687A699A63142002F016FC3C
:100650007B68DB68DB68BB617B681B7A032B03D19B
:10066000BB7E43F00103BB767B68DB68BA69DA6066
:100670007B681B7A032B27D17B68DB681B6B3B6194
:10068000FB7C012262F38303FB74BB7C6FF3C71313
:10069000BB74FB7C43F01003FB74BB7C2D2262F324
:1006A0000603BB747B68DB683A691A63C82002F0F2
:1006B000E5FBBB7C43F08003BB747B68DB683A6975
:1006C0001A63C82002F0DAFB7B68DB78012B10D1BB
:1006D0007B68DB689B68FB603B7B052262F344031D
:1006E0003B733B7B43F020033B737B68DB68FA681A
:1006F0009A60FB7F18462037BD4680BD80B485B028
:1007000000AF78600023FB730023BB603B7A43F0AB
:1007100001033B727B68DB687A68D2689168BA68CB
:100720000A439A60FB7B18461437BD465DF8047B8C
:10073000704700BF80B485B000AF78600023FB73C2
:100740000023BB603B7A43F001033B727B68DB68AC
:100750007A68D2689168BA68D2430A409A60FB7B93
:1007600018461437BD465DF8047B704780B586B0E7
:1007700000AF786039600023FB7400237B610023A5
:10078000FB60FB6843F02003FB603B68DBB203F0D7
:100790001F03DBB203F01F039B01FA6822F4F86227
:1007A0001343FB607B68DB68FA681A617B68DB686F
:1007B0001B69FB607B6901337B617B69094A93425A
:1007C00000D906E0FB685B0903F00103DBB2012BF3
:1007D000ECD0032002F02EFBFB7C18461837BD46F8
:1007E00080BD00BF400D030080B586B000AF7860CB
:1007F0000023FB7400237B610023FB60FB6843F054
:100800001003FB607B68DB68FA681A617B68DB6851
:100810001B69FB607B6901337B617B69094A9342F9
:1008200000D906E0FB681B0903F00103DBB2012BD2
:10083000ECD0032002F0FEFAFB7C18461837BD46C8
:1008400080BD00BF400D030080B584B000AF78606C
:100850000B46FB700023FB737B68DB68DB68BB60C7
:10086000FB7A6FF34513FB72FB7A6FF38613FB720F
:10087000FB78012B04D1FB7A43F02003FB7206E0E6
:10088000FB78002B03D1FB7A43F04003FB727B68BB
:10089000DB68BA68DA60322002F0F0FAFB7B1846B7
:1008A0001037BD4680BD00BF80B483B000AF786014
:1008B0007B68DB685B6903F0010318460C37BD46B3
:1008C0005DF8047B704700BF80B582B000AF7860F0
:1008D0007868FFF7E9FF0346012B14BF01230023CB
:1008E000DBB218460837BD4680BD00BF80B485B076
:1008F00000AF78600023FB607B68DB685B69FB60AE
:100900007B68DB689B69FA681340FB60FB681846EC
:100910001437BD465DF8047B704700BF80B485B0D6
:1009200000AF78600B46FB707B681B691B68FB603F
:10093000FB7803F00303DAB23B7B62F301033B7302
:100940007B681B69FA681A601437BD465DF8047B42
:10095000704700BF80B58CB000AF7860002387F887
:100960002B3000237B6200233B620023FB610023CA
:10097000BB6100237B617B68D3F80C3100221A60D5
:100980007B681B691B683B6297F821306FF3C403D7
:1009900087F821307B681B693A6A1A607B68DB7ACA
:1009A000012B33D178680321FFF7B8FF7B68DB6840
:1009B00080225A624023FB838023BB837B68DB68F1
:1009C000FA699A62BA8BFB8B13449BB23B838023F8
:1009D0007B837B68DB68BA69C3F804213A8B7B8B25
:1009E00013449BB23B8300237B837B68DB68BA693B
:1009F000C3F808213A8B7B8B13449BB23B830023C3
:100A00007B837B68DB68BA69C3F80C2178681021A6
:100A1000FFF7ACFE7868FFF7E7FE7B681B690022F2
:100A20001A617B681B6900225A617B681B694FF061
:100A3000FF329A617B681B690022DA610023FB6246
:100A40003AE07A68FB6A04339B0013449B681B6896
:100A50007B6297F8273023F07F03DBB2002B0ED0A8
:100A600000237B6297F8273043F0400387F8273054
:100A700097F8273043F0080387F8273001E0002378
:100A80007B627A68FB6A04339B0013449B687A6A32
:100A90001A607A68FB6A04339B0013449B68002247
:100AA0001A617A68FB6A04339B0013449B68FF2237
:100AB0009A60FB6A0133FB627B685B781A46FB6ACB
:100AC0009A42BED80023FB6235E07A68FB6A143391
:100AD0009B0013445B681B68FB60FB7B23F07F0378
:100AE000DBB2002B0AD00023FB60FB7B43F040030A
:100AF000FB73FB7B43F00803FB7301E00023FB6007
:100B00007A68FB6A14339B0013445B68FA681A60C6
:100B10007A68FB6A14339B0013445B6800221A61F5
:100B20007A68FB6A14339B0013445B68FF229A6067
:100B3000FB6A0133FB627B685B781A46FB6A9A4268
:100B4000C3D800237B617B7D43F001037B757B6809
:100B50001B697A68126911697A69D24311407A690E
:100B60000A431A617B68DB78012B1BD100233B61B0
:100B70003B7C43F001033B743B7C43F002033B743A
:100B80003B8A402262F38A033B82BB7C43F0010331
:100B9000BB747B8A402262F349037B827B681B69BA
:100BA0003A691A63786800F007F897F82B3018460E
:100BB0003037BD4680BD00BF80B584B000AF7860DF
:100BC0000023FB730023BB607B68DB6800229A6113
:100BD0007B68DB684FF0FF325A617868FFF716FBDD
:100BE0007B68DB78002B03D13B7A43F010033B7228
:100BF0007B7A43F008037B727B7A43F010037B72AD
:100C00007B7A43F020037B72BB7A43F00403BB7210
:100C1000BB7A43F00803BB723B7A43F008033B7294
:100C2000BB7A43F01003BB72BB7A43F02003BB7264
:100C30007B68DB687A68D2689169BA68D2431140F0
:100C4000BA680A439A61FB7B18461037BD4680BDDF
:100C500080B485B000AF78600023FB737B681B69AC
:100C60009B68BB603B7AC3F34103DBB2022B09D024
:100C7000032B04D0012B02D00323FB7305E00223D6
:100C8000FB7302E00123FB7300BFFB7B18461437A4
:100C9000BD465DF8047B704780B487B000AF7860D4
:100CA0000023FB750023BB607B681B699B683B616D
:100CB0007B689B691B68FB603B7CC3F34103DBB231
:100CC000022B04D0BB896FF30A03BB8105E0BB890B
:100CD000032262F30A03BB8100BF7B689B69FA6849
:100CE0001A607B7A43F001037B727B681B697A6828
:100CF00012695168BA68D2431140BA680A435A600F
:100D0000FB7D18461C37BD465DF8047B704700BF6D
:100D100080B487B000AF786039600023FB74002393
:100D2000FB600023BB603B685B78012B0FD13B6805
:100D30001B787A6804339B0013449B687B613B6893
:100D40001B781A46012393409BB23B810EE03B681F
:100D50001B787A6814339B0013445B687B613B68A3
:100D60001B781A46012393409BB27B817B691B68E9
:100D7000FB607B7B23F07F03DBB2002B27D13B683A
:100D80009B689BB2C3F30A039AB2BB8962F30A035E
:100D9000BB813B68DB7803F00303DAB2BB7B62F311
:100DA0008303BB733B68DB88DBB203F00F03DAB26B
:100DB000FB8962F38913FB81FB7B43F01003FB7318
:100DC0007B7B43F080037B73FA687B691A607B68E6
:100DD0001B697A681269D169BA680A43DA61FB7CD7
:100DE00018461C37BD465DF8047B704780B487B059
:100DF00000AF786039600023FB740023FB600023A0
:100E0000BB603B685B78012B0FD13B681B787A682D
:100E100004339B0013449B687B613B681B781A4634
:100E2000012393409BB23B810EE03B681B787A68BC
:100E300014339B0013445B687B613B681B781A4644
:100E4000012393409BB27B817B7B6FF3C7137B7342
:100E5000FA687B691A607B681B697A681269D169D4
:100E6000BA68D2430A40DA61FB7C18461C37BD469B
:100E70005DF8047B704700BF80B588B000AF786034
:100E800039600023FB770023BB6100237B610023D3
:100E90003B613B685B78012B40F0AB803B681B7883
:100EA0007A6804339B0013449B681B687B613B6832
:100EB0001B787A6804339B0013449B681B693B6171
:100EC0003B685B69002B09D13B696FF312033B61FF
:100ED0007B8A012262F3CC037B8222E03B685B6960
:100EE000C3F312023B6962F312033B613B685A6928
:100EF0003B689B6813445A1E3B689B68B2FBF3F344
:100F00009BB2C3F309039AB27B8A62F3CC037B8260
:100F10003B68DB78012B04D1FB7C012262F3461392
:100F2000FB743B681B787A6804339B0013449B680E
:100F30003A691A617B68DB78012B0AD13B681B7820
:100F40007A6804339B0013449B683A6812695A61BB
:100F500015E03B68DB78012B11D03B685B69002B07
:100F60000DD03B681B781A4601239340BB617B6818
:100F70001B697A681269516BBA690A435A633B6804
:100F8000DB78012B14D17B681B699B68FB60FB68D5
:100F9000C3F30D239BB203F00103002B04D1FB7DAF
:100FA00043F02003FB7503E0FB7D43F01003FB756A
:100FB000FB7D43F00403FB75FB7D43F08003FB7571
:100FC0003B681B787A6804339B0013449B687A69FA
:100FD0001A603B68DB78012B40F089803B68D96858
:100FE0003B681A783B685B699BB27868FFF776F9D3
:100FF0007DE03B681B787A6814339B0013445B6880
:101000001B687B613B681B787A6814339B00134430
:101010005B681B693B613B685B69002B0DD13B68DA
:101020009B68C3F312023B6962F312033B617B8A44
:10103000012262F3CC037B8220E03B685A693B6863
:101040009B6813445A1E3B689B68B2FBF3F39BB248
:10105000C3F309039AB27B8A62F3CC037B827B8A57
:10106000C3F3C9039BB21A463B689B6803FB02F3B8
:10107000C3F312023B6962F312033B613B681B78C6
:101080007A6814339B0013445B683A691A617B6881
:10109000DB78012B09D13B681B787A6814339B00FD
:1010A00013445B683A6812695A613B68DB78012B2C
:1010B0000CD13B685B79002B04D0FB7D43F020030F
:1010C000FB7503E0FB7D43F01003FB75FB7D43F0F4
:1010D0000403FB75FB7D43F08003FB753B681B78C5
:1010E0007A6814339B0013445B687A691A60FB7F4B
:1010F00018462037BD4680BD80B489B000AF786007
:1011000039600023FB770023BB6100233B61002390
:10111000BB603B685B78012B70D17B689B697B610E
:101120007B691B683B617B691B69BB603B685B69D2
:10113000002B09D13B7A6FF306033B72BB7A012285
:1011400062F3C403BB7223E03B685A693B689B6847
:101150009A420ED93B689A683B685A613B689B6823
:10116000DBB203F07F03DAB23B7A62F306033B7231
:1011700009E03B685B69DBB203F07F03DAB23B7ADC
:1011800062F306033B72BB7A012262F3C403BB72B3
:10119000BA687B691A617B68DB78012B09D13B68EF
:1011A0001B787A6804339B0013449B683A68126981
:1011B0005A61FB7C43F00403FB74FB7C43F0800327
:1011C000FB743A697B691A607B68DB78002B76D107
:1011D0003B685B69002B72D03B681B781A46012381
:1011E00093401A46BB691343BB617B681B697A68ED
:1011F0001269516BBA690A435A6360E03B681B7815
:101200007A6814339B0013445B681B683B613B683E
:101210001B787A6814339B0013445B681B69BB60BE
:101220003B685B69002B0FD13B689B68DBB203F026
:101230007F03DAB23B7A62F306033B72BB7A012288
:1012400062F3C403BB7212E03B689A683B685A6160
:101250003B689B68DBB203F07F03DAB23B7A62F350
:1012600006033B72BB7A012262F3C403BB723B6884
:101270001B787A6814339B0013445B68BA681A6160
:101280007B68DB78012B09D13B681B787A681433C3
:101290009B0013445B683A6812695A61FB7C43F017
:1012A0000403FB74FB7C43F08003FB743B681B78F6
:1012B0007A6814339B0013445B683A691A60FB7FB9
:1012C00018462437BD465DF8047B704780B487B06C
:1012D00000AF786039600023FB750023FB603B683A
:1012E0005B78012B1CD13B681B787A6804339B0028
:1012F00013449B683B613B691B68FB60FB7B23F0ED
:101300007F03DBB2002B03D0FB7B43F04003FB7376
:10131000BB7B43F02003BB73FA683B691A6011E0A2
:101320003B681B787A6814339B0013445B683B610D
:101330003B691B68FB60BB7B43F02003BB73FA680F
:101340003B691A60FB7D18461C37BD465DF8047B7F
:10135000704700BF80B487B000AF78603960002369
:10136000FB740023FB603B685B78012B08D13B6872
:101370001B787A6804339B0013449B687B6107E009
:101380003B681B787A6814339B0013445B687B616D
:101390007B691B68FB60BB7B6FF34513BB733B68CA
:1013A000DB78032B03D03B68DB78022B03D1FB7B7C
:1013B00043F01003FB73FA687B691A60FB7C1846E4
:1013C0001C37BD465DF8047B704700BF80B485B014
:1013D00000AF78607B681B699B69FB607B681B6959
:1013E000DB69FA681340FB60FB681B0C1846143776
:1013F000BD465DF8047B704780B485B000AF78606F
:101400000B46FB70FB787A6814339B0013445B68CF
:101410009B68FB607B681B695B69FA681340FB6033
:10142000FB6818461437BD465DF8047B704700BF63
:1014300080B485B000AF78607B681B699B69FB60F6
:101440007B681B69DB69FA681340FB60FB689BB231
:1014500018461437BD465DF8047B704780B487B0EA
:1014600000AF786000233B61FB7C43F0C003FB745A
:10147000BB7C012262F3C403BB743B7C182262F381
:1014800006033B747B685B6D3A691A617B68DB78A5
:10149000012B16D10023FB607B685B6D7A6802F537
:1014A000B9625A617B685B6D1B68FB60FB7B43F034
:1014B0008003FB734FF08023FB607B685B6DFA68F1
:1014C0001A601C37BD465DF8047B704780B485B058
:1014D00000AF78607B689B7A002B1BD07B681B6910
:1014E0009B68FB603B7B03F00103DBB2002B11D058
:1014F0007B6803F586731B68BB603B7A6FF341031F
:101500003B723B7A6FF300033B727B68D3F80C317C
:10151000BA681A601437BD465DF8047B704700BF97
:1015200080B400AFBD465DF8047B704780B483B0E3
:1015300000AF0346FB710C37BD465DF8047B704776
:1015400080B400AFBD465DF8047B704780B400AF47
:10155000BD465DF8047B704780B400AFBD465DF8C2
:10156000047B704780B582B000AF134B7B60134B98
:101570003B6007E03B681A1D3A607A68111D79608C
:1015800012681A603B680E4A9342F3D30D480E4925
:101590004FF000028842B8BF40F8042BFADBDFF8B6
:1015A0002C00016841F47001016001F09DF900F028
:1015B000D1FB0837BD4680BD1A4A00080000002054
:1015C00010010020100100202808002088ED00E014
:1015D00080B400AFFEE700BF80B584B000AF034623
:1015E000FB71FB79104A52F823301846012100F0B4
:1015F00037FDFB790D4A32F81330BB6001233B7392
:101600000023BB730023FB7303237B73FB79084A1E
:1016100052F8232007F108031046194601F08EF80E
:101620001037BD4680BD00BF7C49000874490008E2
:101630001C00002080B483B000AF0346FB71FB792F
:10164000064A52F82330FA79054931F812201A83F4
:101650000C37BD465DF8047B704700BF1C000020BE
:101660007449000880B483B000AF0346FB71FB7976
:10167000064A52F82330FA79054931F812205A8384
:101680000C37BD465DF8047B704700BF1C0000208E
:101690007449000880B588B000AF03460A46FB7164
:1016A0001346BB7101231846012100F0D9FC4FF409
:1016B0008040012100F010FD00233B770023FB77E1
:1016C0000123BB61FB79174A52F8232007F1180365
:1016D0001046194601F032F8BB79012B1FD10022C8
:1016E000002310461946FEF74FFD01233B610023FE
:1016F0003B7508237B750123BB7507F11003184662
:1017000002F098FD06233B730F237B730F23BB73FB
:101710000123FB7307F10C03184602F01DFE20376E
:10172000BD4680BD2C00002080B582B000AF78603F
:101730000B46FB70786881213F22032302F0ECFE08
:10174000786801213F22032302F0E6FE7868012138
:10175000044A3F2302F06CFF002318460837BD46B9
:1017600080BD00BF1C01002080B582B000AF786052
:101770000B46FB707868812102F022FF7868012116
:1017800002F01EFF002318460837BD4680BD00BF8B
:1017900080B584B000AF786039600023FB810023FE
:1017A000BB603B681B7803F06003002B41D0202B0B
:1017B00078D13B685B78023B092B33D801A252F801
:1017C00023F000BF19180008FB17000825180008AF
:1017D00025180008251800082518000825180008F5
:1017E0002518000807180008ED1700083B685B88FB
:1017F000DBB21A462E4B1A601AE078682C49012297
:1018000003F040F814E03B685B881B0A9BB2DBB234
:101810001A46284B1A600BE078682649012203F02B
:1018200031F805E07868396801F056FF02233AE0A4
:1018300038E03B685B780A2B27D00B2B2BD0062B8C
:1018400030D13B685B881B0A9BB2222B08D13B68D6
:10185000DB88172B28BF1723FB81174BBB600DE0DC
:101860003B685B881B0A9BB2212B07D1134BBB60E3
:101870003B68DB88092B28BF0923FB81FB8978683B
:10188000B9681A4602F0FEFF0CE078680C490122A4
:1018900002F0F8FF06E03B685B88DBB21A46084BB3
:1018A0001A6000BF002318461037BD4680BD00BF38
:1018B0001401002018010020880000206E00002084
:1018C0001001002080B483B000AF03463960FB7183
:1018D0003B6829221A80034B18460C37BD465DF839
:1018E000047B70475C00002080B582B000AF786058
:1018F0000B46FB707868812102F08CFF00231846AC
:101900000837BD4680BD00BF80B584B000AF7860A9
:101910000B46FB700023FB730CE097F90F3097F92F
:101920000F200C49895C0C4AD154FB7BDBB201339C
:10193000DBB2FB7397F90F303F2BEEDD78680121A6
:10194000044A3F2302F074FE002318461037BD46B8
:1019500080BD00BF1C010020B801002080B584B00C
:1019600000AFF8607A603B600B46FB72F86801F0EC
:10197000F1F9F86800F01CF8FB683A68C3F8E02554
:10198000FB68BA69C3F8E425FB687A68C3F8E82500
:10199000FB7AF868194602F03FFDFB68D3F8E4359E
:1019A0001B689847F86801F02DFA1037BD4680BDD6
:1019B00080B483B000AF7860002318460C37BD4672
:1019C0005DF8047B704700BF80B584B000AF7860DD
:1019D00007F108037868194601F036FE3B7A03F0F8
:1019E0001F03012B0AD0022B0FD0002B14D107F1BB
:1019F00008037868194601F051FA16E007F1080368
:101A00007868194601F09AFA0FE007F10803786840
:101A1000194601F0C7FA08E03B7A23F07F03DBB2F6
:101A20007868194602F082FE00BF0023184610377E
:101A3000BD4680BD80B584B000AF78600B46FB70BA
:101A4000FB78002B44D17B6803F55C73FB607B68FB
:101A500093F81131032B4ED1FB68DA69FB689B6860
:101A60009A4220D9FB68DA69FB689B68D21AFB6846
:101A7000DA617B68DB78012B06D1FB68DA68FB68EA
:101A80009B681A44FB68DA60FB68D968FB689A684F
:101A9000FB68DB69934228BF13469BB278681A46FD
:101AA00002F024FF27E07B68D3F8E0351B69002BA8
:101AB0000AD07B6893F81231032B05D17B68D3F8E9
:101AC000E0351B6978689847786802F023FF12E0D8
:101AD0007B68D3F8E0359B69002B0CD07B6893F8CA
:101AE0001231032B07D17B68D3F8E0359B69FA7874
:101AF000786811469847002318461037BD4680BDC8
:101B000080B584B000AF78600B46FB70FB78002B8B
:101B100060D17B6803F58C73FB607B6893F81131AF
:101B2000022B6AD1FB68DA69FB689B689A421CD970
:101B3000FB68DA69FB689B68D21AFB68DA617B682C
:101B4000DB78012B06D1FB68DA68FB689B681A44D6
:101B5000FB68DA60FB68DA68FB68DB699BB278686F
:101B600011461A4602F0AEFE47E0FB681B6AFA68AF
:101B70009268B3FBF2F102FB01F29B1A002B14D125
:101B8000FB681A6AFB689B689A420ED3FB681A6A64
:101B9000FB685B6A9A4208D278680021002202F052
:101BA00091FEFB6800225A6227E07B68D3F8E0359B
:101BB000DB68002B0AD07B6893F81231032B05D128
:101BC0007B68D3F8E035DB6878689847786802F07E
:101BD000B9FE12E07B68D3F8E0355B69002B0CD0CE
:101BE0007B6893F81231032B07D17B68D3F8E0357B
:101BF0005B69FA78786811469847002318461037D1
:101C0000BD4680BD80B582B000AF786078680021A5
:101C10004022002302F080FC7868802140220023CB
:101C200002F07AFC7B68012283F812217B68D3F8EA
:101C3000E4355B687A689278104698470023184626
:101C40000837BD4680BD00BF80B582B000AF786068
:101C50007B68D3F8E4351B6998477B68032283F8D7
:101C60001221002318460837BD4680BD80B582B0DA
:101C700000AF78607B68042283F812217B68D3F878
:101C8000E435DB689847002318460837BD4680BD19
:101C900080B582B000AF78607B68D3F8E035DB694F
:101CA000002B05D07B68D3F8E035DB69786898476E
:101CB000002318460837BD4680BD00BF80B582B0FE
:101CC00000AF78600B46FB707B68D3F8E0351B688B
:101CD000FA787868114698477B68D3F8E4359B68B2
:101CE0009847002318460837BD4680BD80B582B0AE
:101CF00000AF78600B46FB707B68D3F8E0355B681B
:101D0000FA78786811469847002318460837BD4688
:101D100080BD00BF80B582B000AF78607B68D3F82B
:101D2000E0351B6A78689847002318460837BD4697
:101D300080BD00BF80B582B000AF78607B68D3F80B
:101D4000E0355B6A78689847002318460837BD4637
:101D500080BD00BF80B584B002AF0120FFF73CFC1E
:101D60000020FFF739FC0220FFF736FC0320FFF7C5
:101D700033FC00200021FFF78DFC0120FFF75AFC07
:101D80004FF6FF7000F05CF90120FFF76BFC4E4B43
:101D900000934E4801214E4A4E4BFFF7DFFD00F005
:101DA000A7F800237B60FF2000F04AF94A4B5B78DC
:101DB00003F00103DBB2002B35D07B68474A934226
:101DC0001AD0464A934205DC012B0AD0444A93427A
:101DD0000BD024E0434A934215D0434A934219D092
:101DE0001DE00120FFF726FC19E00120FFF73AFC77
:101DF0000020FFF71FFC12E00020FFF733FC022059
:101E0000FFF718FC0BE00220FFF72CFC0320FFF784
:101E100011FC04E00320FFF725FC00237B607B68B6
:101E200001337B604FE02C4B1A78304BA3FB02133D
:101E300099080B469B000B44D31ADBB2012B03D14C
:101E40000120FFF7F7FB02E00120FFF70BFC224B1C
:101E50001A78264BA3FB021399080B469B000B44F0
:101E6000D31ADBB2022B03D10020FFF7E3FB02E021
:101E70000020FFF7F7FB184B1A781C4BA3FB02134B
:101E800099080B469B000B44D31ADBB2032B03D1FA
:101E90000220FFF7CFFB02E00220FFF7E3FB0E4B2F
:101EA0001A78124BA3FB021399080B469B000B44B4
:101EB000D31ADBB2042B03D10320FFF7BBFB02E0F4
:101EC0000320FFF7CFFB6EE700000020F8010020A1
:101ED000D000002030000020B80100207E841E00C9
:101EE0003F420F00BDC62D00FC083D00CDCCCCCC40
:101EF00080B59CB000AF0120012100F0B1F80223B1
:101F0000BB66032387F86C30002387F86F3007F136
:101F100068034548194600F011FC4FF400100121F8
:101F200000F09EF84FF48070012100F0D5F800F029
:101F300099F93E4800F07EFD4FF000737B603C4B0A
:101F4000BB603C4BFB6000233B6101237B610023B2
:101F5000BB614FF48063FB614FF400633B624FF45D
:101F600000537B624FF48073BB624FF40033FB621B
:101F700000233B6301237B630023BB630023FB63DC
:101F80003B1D2A48194600F027FE28482A4901220D
:101F900000F078FE00233B6400237B640023BB64D5
:101FA0000023FB6407F14003184600F0BDF900234D
:101FB0003B65012387F85430012387F8553000230F
:101FC000BB6500233B66012387F8643007F15003AB
:101FD0001A48194600F054F918480021012200233C
:101FE00000F0E6F91548012100F0D8FA1348012164
:101FF00000F0B8FA1148012100F0BEF90F4800F0D6
:10200000A1FA4FF4A06002F095F90B233B70022374
:102010007B700023BB700123FB703B46184602F027
:102020009BF97037BD4680BD000002401060024041
:10203000082301405C0100202080001000200140A6
:1020400080B483B000AF78607B68002B02D07B68DF
:10205000013B7B600C37BD465DF8047B704700BFD9
:1020600080B483B000AF78600B46FB70FB78002B28
:1020700006D00949084B1A6B7B6813430B6306E0D3
:102080000549054B1A6B7B68DB4313400B630C3728
:10209000BD465DF8047B70470038024080B483B0D1
:1020A00000AF78600B46FB70FB78002B06D0094927
:1020B000084B5A6B7B6813434B6306E00549054B9D
:1020C0005A6B7B68DB4313404B630C37BD465DF8AE
:1020D000047B70470038024080B483B000AF786062
:1020E0000B46FB70FB78002B06D00949084B5A6C55
:1020F0007B6813434B6406E00549054B5A6C7B68CB
:10210000DB4313404B640C37BD465DF8047B7047DE
:102110000038024080B483B000AF78600B46FB709B
:10212000FB78002B06D00949084B1A6A7B681343D9
:102130000B6206E00549054B1A6A7B68DB431340D6
:102140000B620C37BD465DF8047B704700380240D7
:1021500080B483B000AF78600B46FB70FB78002B37
:1021600006D00949084B5A6A7B6813434B6206E064
:102170000549054B5A6A7B68DB4313404B620C37B9
:10218000BD465DF8047B70470038024080B400AF64
:10219000BD465DF8047B704780B400AFFEE700BF2A
:1021A00080B400AFFEE700BF80B400AFFEE700BF21
:1021B00080B400AFFEE700BF80B400AFBD465DF85D
:1021C000047B704780B400AFBD465DF8047B704768
:1021D00080B400AFBD465DF8047B704780B400AFAB
:1021E000BD465DF8047B704780B500AF094B9B7A14
:1021F000002B0AD0084A084B1B6823F00603136023
:1022000000F072FB0348FFF761F94FF4802002F001
:1022100083F880BDF801002010ED00E080B500AF2C
:10222000014801F0D7FA80BDF801002080B500AF69
:10223000084B1B681A09084B1B681B09D31A042B8F
:1022400003D9044B1B68044A13600448044900F096
:1022500053FD80BD5C010020600100201060024041
:102260002080001080B500AF4FF480700121FFF78F
:102270006FFF4FF480700021FFF76AFF80BD00BF41
:1022800080B485B000AF786039600023FB60002324
:10229000FB727B685B68FB60FB6823F0407323F490
:1022A0008073FB603B681B791A023B681B68134311
:1022B000FA681343FB607B68FA685A607B689B6826
:1022C000FB60FA68174B1340FB603B681A693B6878
:1022D000DB681A433B689B681A433B685B795B0089
:1022E0001343FA681343FB607B68FA689A607B6863
:1022F000DB6AFB60FB6823F47003FB603B681B7DBB
:10230000013BDAB2FB7A1343FB72FB7A1B05FA68D6
:102310001343FB607B68FA68DA621437BD465DF8E8
:10232000047B7047FDF7FFC080B485B000AF7860D4
:102330000023FB600E4B5B68FB60FA680D4B13409B
:10234000FB607B681A687B685B681A437B689B68E4
:102350001A437B68DB681343FA681343FB60044A43
:10236000FB6853601437BD465DF8047B704700BFBF
:1023700000230140E030FCFF80B483B000AF786000
:102380000B46FB70FB78002B06D07B689B6843F004
:1023900001027B689A6005E07B689B6823F001027C
:1023A0007B689A600C37BD465DF8047B704700BFC0
:1023B00080B485B000AF7860084611461A460346DF
:1023C000FB700B46BB7013467B700023FB60002341
:1023D000BB60FB78092B23D97B68DB68FB60FB784B
:1023E000A3F10A0213465B001344072202FA03F327
:1023F000BB60BB68DB43FA681340FB607978FB780D
:10240000A3F10A0213465B00134401FA03F3BB6015
:10241000FA68BB681343FB607B68FA68DA601EE009
:102420007B681B69FB60FA7813465B001344072244
:1024300002FA03F3BB60BB68DB43FA681340FB603E
:102440007978FA7813465B00134401FA03F3BB6012
:10245000FA68BB681343FB607B68FA681A61BB7853
:10246000062B21D87B685B6BFB60BB785A1E13463A
:102470009B0013441F2202FA03F3BB60BB68DB43DB
:10248000FA681340FB60F978BB785A1E13469B002C
:10249000134401FA03F3BB60FA68BB681343FB60A3
:1024A0007B68FA685A6347E0BB780C2B21D87B68BD
:1024B0001B6BFB60BB78DA1F13469B0013441F2283
:1024C00002FA03F3BB60BB68DB43FA681340FB60AE
:1024D000F978BB78DA1F13469B00134401FA03F323
:1024E000BB60FA68BB681343FB607B68FA681A63D9
:1024F00022E07B68DB6AFB60BB78A3F10D02134628
:102500009B0013441F2202FA03F3BB60BB68DB434A
:10251000FA681340FB60F978BB78A3F10D0213460B
:102520009B00134401FA03F3BB60FA68BB681343D2
:10253000FB607B68FA68DA621437BD465DF8047B9D
:10254000704700BF80B483B000AF78607B689B6841
:1025500043F080427B689A600C37BD465DF8047B8F
:10256000704700BF80B483B000AF78600B46FB704B
:10257000FB78002B06D07B689B6843F480727B68F5
:102580009A6005E07B689B6823F480727B689A60A0
:102590000C37BD465DF8047B704700BF80B483B044
:1025A00000AF78600B46FB70FB78002B06D07B6891
:1025B0009B6843F400727B689A6005E07B689B68C7
:1025C00023F400727B689A600C37BD465DF8047B8B
:1025D000704700BF80B483B000AF03463960FB7121
:1025E0003B6812221A80034B18460C37BD465DF833
:1025F000047B7047EC00002080B483B000AF03463A
:102600003960FB713B6804221A80034B18460C3773
:10261000BD465DF8047B70470C01002080B582B098
:1026200000AF03463960FB71FB79002B05D10848E8
:1026300008493A6801F074F804E0074805493A6827
:1026400001F06EF8034B18460837BD4680BD00BF49
:10265000A4490008E8070020B849000880B582B006
:1026600000AF03463960FB71044805493A6801F040
:1026700057F8034B18460837BD4680BDCC490008C3
:10268000E807002080B582B000AF03463960FB71D7
:10269000FB79002B05D1084808493A6801F040F859
:1026A00004E0074805493A6801F03AF8034B184638
:1026B0000837BD4680BD00BFE0490008E80700209C
:1026C000F049000880B582B000AF03463960FB7165
:1026D000FB79002B05D1084808493A6801F020F839
:1026E00004E0054805493A6801F01AF8034B18461A
:1026F0000837BD4680BD00BF004A0008E80700203B
:1027000080B582B000AF03463960FB71FB79002BC6
:1027100005D1084808493A6801F002F804E0054884
:1027200005493A6800F0FCFF034B18460837BD46E0
:1027300080BD00BF0C4A0008E807002080B487B0C5
:1027400000AF7860396000237B6100233B61002388
:10275000FB6000237B6176E07B69012202FA03F3D0
:102760003B613B681A683B691340FB60FA683B6950
:102770009A4265D17B681A687B695B00194603231E
:102780008B40DB431A407B681A607B681A683B68A1
:102790001B7919467B695B0001FA03F31A437B68D6
:1027A0001A603B681B79012B03D03B681B79022B15
:1027B0002ED17B689A687B695B00194603238B40A6
:1027C000DB431A407B689A607B689A683B685B7958
:1027D00019467B695B0001FA03F31A437B689A6030
:1027E0007B685A687B699BB2194601238B40DB43A7
:1027F0001A407B685A607B685B683A689279114638
:102800007A6992B201FA02F292B21A437B685A6074
:102810007B68DA687B699BB25B00032101FA03F3F2
:10282000DB431A407B68DA607B68DA683B68DB79F7
:1028300019467B695B0001FA03F31A437B68DA608F
:102840007B6901337B617B690F2B85D91C37BD46C2
:102850005DF8047B704700BF80B485B000AF78603E
:102860000B467B8013467B700023FB600023BB601C
:102870007B787A8802F0070292009340FB607B88A5
:10288000DB089BB218467B88DB089BB21A467B6844
:10289000083253F822207B8803F007039B00194677
:1028A0000F238B40DB4302EA03017B6800F108023F
:1028B00043F822107B88DB089BB21A467B680832FB
:1028C00053F82220FB681343BB607B88DB089BB274
:1028D0001A467B680832B96843F822101437BD469F
:1028E0005DF8047B704700BF80B500AF114A114B03
:1028F0001B6843F0010313600E4B00229A600D4ADF
:102900000C4B1B6823F0847323F480331360094B52
:10291000094A5A60074A074B1B6823F48023136057
:10292000044B0022DA6000F00BF8044B4FF0006219
:102930009A6080BD003802401030002400ED00E0B5
:1029400080B483B000AF00237B6000233B60354A36
:10295000344B1B6843F480331360324B1B6803F421
:1029600000333B607B6801337B603B68002B03D105
:102970007B68B3F5A06FF0D12A4B1B6803F40033DA
:10298000002B02D001233B6001E000233B603B6849
:10299000012B42D1234A234B1B6C43F08053136419
:1029A000214A214B1B6843F4804313601D4A1D4B91
:1029B0009B6893601B4A1B4B9B6843F400439360E6
:1029C000184A184B9B6843F4A0539360154B174A61
:1029D0005A60144A134B1B6843F08073136000BFA6
:1029E000104B1B6803F00073002BF9D0104B40F222
:1029F00005621A600B4A0B4B9B6823F0030393603C
:102A0000084A084B9B6843F00203936000BF054BE4
:102A10009B6803F00C03082BF9D10C37BD465DF819
:102A2000047B7047003802400070004008544007A3
:102A3000003C024080B483B000AF78607B681B68C4
:102A400023F001027B681A607B6800221A607B68B1
:102A500000225A607B6800229A607B680022DA605C
:102A60007B6800221A617B6821225A617B68454A93
:102A7000934203D1444B3D229A607EE07B68434AF7
:102A8000934204D1404B4FF474629A6075E07B68C6
:102A90003F4A934204D13C4B4FF474129A606CE06D
:102AA0007B683C4A934204D1374B4FF074629A6082
:102AB00063E07B68384A934203D1334B374ADA608C
:102AC0005BE07B68364A934203D12F4B354ADA608C
:102AD00053E07B68344A934203D12B4B334ADA608C
:102AE0004BE07B68324A934204D1274B4FF03D5272
:102AF000DA6042E07B682F4A934203D12E4B3D229D
:102B00009A603AE07B682D4A934204D12A4B4FF4F5
:102B100074629A6031E07B68294A934204D1264B63
:102B20004FF474129A6028E07B68264A934204D1DD
:102B3000214B4FF074629A601FE07B68224A9342F7
:102B400003D11D4B154ADA6017E07B681F4A934298
:102B500003D1194B134ADA600FE07B681C4A934299
:102B600003D1154B114ADA6007E07B68194A93429A
:102B700003D1114B4FF03D52DA600C37BD465DF882
:102B8000047B7047106002400060024028600240F1
:102B90004060024058600240706002403D000020EA
:102BA00088600240400F0020A060024000003D20ED
:102BB000B860024010640240006402402864024091
:102BC00040640240586402407064024088640240DD
:102BD000A0640240B864024080B485B000AF786061
:102BE00039600023FB607B681B68FB60FA68244B3C
:102BF0001340FB603B681A683B68DB681A433B681C
:102C00005B691A433B689B691A433B68DB691A435B
:102C10003B681B6A1A433B685B6A1A433B689B6AC2
:102C20001A433B685B6B1A433B689B6B1343FA6820
:102C30001343FB607B68FA681A607B685B69FB6022
:102C4000FB6823F00703FB603B68DA6A3B681B6B99
:102C50001343FA681343FB607B68FA685A613B6868
:102C60001A697B685A603B685A687B689A603B685F
:102C70009A687B68DA601437BD465DF8047B70475C
:102C80003F801CF080B485B000AFF860B960134697
:102C9000FB71BB6803F08003002B0FD0FB79002B86
:102CA00006D0FB685B6943F08002FB685A6105E06F
:102CB000FB685B6923F08002FB685A61BB68802B6C
:102CC00014D0FB79002B08D0FB681A68BB6803F0AE
:102CD0001E031A43FB681A6008E0FB681A68BB68A9
:102CE00003F01E03DB431A40FB681A601437BD462D
:102CF0005DF8047B704700BF80B485B000AF78609A
:102D000039607B68104A934202D8104BFB6001E0A7
:102D10000F4BFB603B6803F00053002B07D03B6870
:102D200023F0F02323F08213FA68D36006E03B68B7
:102D300023F0F02323F08213FA6893601437BD4622
:102D40005DF8047B704700BF0F64024000600240E2
:102D50000064024080B584B000AF7860012001219A
:102D6000FFF77EF94FF4D853BB6003237B73022334
:102D70003B730023BB730023FB7307F10803204858
:102D80001946FFF7DBFC1E4808210A22FFF764FD05
:102D90001B4809210A22FFF75FFD19480B210A226F
:102DA000FFF75AFD16480C210A22FFF755FD4FF494
:102DB0008063BB600123BB730123FB7303237B731D
:102DC00007F108030E481946FFF7B8FC0C480A2122
:102DD0000A22FFF741FD4FF480400121FFF77CF903
:102DE00080200121FFF75AF94FF080500121FFF7B1
:102DF00091F900200021FEF74DFC1037BD4680BD43
:102E00000000024080B584B000AF78604FF4C0602D
:102E100001F090FA43233B7301237B730323BB73BD
:102E20000123FB7307F10C03184601F095FA1037E4
:102E3000BD4680BD80B485B000AF78600023FB60E4
:102E40007A6813461B019B1ADB001A460A4BA3FB48
:102E50000213D21A520813449B08BB60FB6801336B
:102E6000FB60FA68BB689A4200D900E0F6E71437C5
:102E7000BD465DF8047B70472549922480B582B039
:102E800000AF78607B684FF47A7202FB03F3184658
:102E9000FFF7D0FF0837BD4680BD00BF80B584B0C6
:102EA00000AF786039600023FB733B685B78092BC7
:102EB00039D801A252F823F0092F00081D2F00086D
:102EC000272F0008132F0008272F0008EB2E0008DB
:102ED000E12E0008272F0008FF2E0008F52E00081D
:102EE0007868396800F036F922E07868396800F0CF
:102EF0000DFA1DE07868396800F046FA18E0786845
:102F0000396800F0BBFA13E07868396800F0E6FA37
:102F10000EE07868396800F009FB09E078683968E4
:102F200000F06AFB04E07868396800F0D5FB00BF68
:102F3000FB7B18461037BD4680BD00BF80B584B00E
:102F400000AF786039600023FB737B6893F812311F
:102F5000032B1CD13B689B88DBB2012B11D87B680B
:102F6000D3F8E0359B687868396898473B68DB8818
:102F7000002B0BD1FB7B002B08D1786801F0CAFC39
:102F80000AE07868396800F0A7FB05E004E078689B
:102F9000396800F0A1FB00BFFB7B18461037BD4627
:102FA00080BD00BF80B584B000AF78603960002379
:102FB000FB733B689B88BB733B685B78012B39D004
:102FC000032B02D0002B6BD0BCE07B6893F812314E
:102FD000022B02D0032B0DD026E0BB7B002B08D0A8
:102FE000BB7B802B05D0BB7B7868194601F09EFB2C
:102FF0001FE01EE03B685B88002B0AD1BB7B002BE7
:1030000007D0BB7B802B04D0BB7B7868194601F0CE
:103010008DFB7B68D3F8E0359B6878683968984702
:10302000786801F077FC04E07868396800F054FBB8
:1030300000BF87E07B6893F81231022B02D0032B8C
:103040000DD027E0BB7B002B08D0BB7B802B05D0AD
:10305000BB7B7868194601F069FB20E01FE03B6804
:103060005B88002B15D1BB7B002B0ED0BB7B802B4C
:103070000BD0BB7B7868194601F092FB7B68D3F8D4
:10308000E0359B68786839689847786801F042FCB9
:1030900005E004E07868396800F01EFB00BF51E0ED
:1030A0007B6893F81231022B02D0032B0DD043E042
:1030B000BB7B002B08D0BB7B802B05D0BB7B78680B
:1030C000194601F033FB3CE03BE0BB7B5BB2002BDD
:1030D00015DABB7B03F07F02796813469B0013442B
:1030E000DB000B4403F58C739B78002B03D0184B4B
:1030F00001221A601AE0164B00221A6016E0BB7B10
:103100005BB2002B12DBBA7B796813469B00134439
:10311000DB000B4403F55C739B78002B03D00C4B56
:1031200001221A6002E00A4B00221A6078680849FE
:10313000022201F0A7FB04E07868396800F0CCFABD
:1031400000BF00BFFB7B18461037BD4680BD00BFE7
:103150006801002080B584B000AF786039603B68BA
:103160005B881B0A9BB2013B062B00F2B18001A2D7
:1031700052F823F091310008C3310008ED31000806
:10318000D1320008D1320008BD320008C732000831
:103190007B68D3F8E8351B687A68917807F10A02F2
:1031A000084611469847F8603B68DB88402B04D0FE
:1031B0007B6893F81231012B02D108237B818CE0CC
:1031C0008BE07B68D3F8E0359B6A7A68917807F1E9
:1031D0000A02084611469847F860FB68013302224C
:1031E0001A707B68FA68C3F8EC2576E03B685B8868
:1031F000DBB2052B5CD801A252F823F0153200088F
:103200002F32000849320008633200087D3200087E
:10321000973200087B68D3F8E8355B687A68917864
:1032200007F10A02084611469847F86045E07B68B6
:10323000D3F8E8359B687A68917807F10A02084666
:1032400011469847F86038E07B68D3F8E835DB68CA
:103250007A68917807F10A02084611469847F860A3
:103260002BE07B68D3F8E8351B697A68917807F121
:103270000A02084611469847F8601EE07B68D3F8BA
:10328000E8355B697A68917807F10A0208461146C9
:103290009847F86011E07B68D3F8E8359B697A6855
:1032A000917807F10A02084611469847F86004E051
:1032B0007868396800F010FA24E00EE07868396820
:1032C00000F00AFA1EE07868396800F005FA19E0A3
:1032D0007868396800F000FA14E07B89002B11D07F
:1032E0003B68DB88002B0DD03B68DA887B899342F2
:1032F00028BF13469BB27B817B897868F9681A46A0
:1033000001F0C0FA1037BD4680BD00BF80B584B063
:1033100000AF786039603B689B88002B2DD13B68FB
:10332000DB88002B29D13B685B88DBB203F07F038D
:10333000FB737B6893F81231032B04D178683968EA
:1033400000F0CAF918E07B68FA7B83F81321FB7B55
:103350007868194601F078FA786801F0DBFAFB7BAF
:10336000002B04D07B68022283F8122104E07B68E2
:10337000012283F8122104E003E07868396800F044
:10338000ABF91037BD4680BD80B582B000AF786024
:1033900039603B685B88DAB2374B1A70364B1B7862
:1033A000012B04D97868396800F096F960E07B68F1
:1033B00093F81231022B02D0032B1BD053E02E4B7B
:1033C0001B78002B12D02C4B1A787B6883F81021C5
:1033D0007B68032283F81221274B1B7878681946F3
:1033E000FEF76CFC786801F095FA41E0786801F02E
:1033F00091FA3DE0204B1B78002B12D17B68022212
:1034000083F812211C4B1A787B6883F810211A4B21
:103410001B7878681946FEF769FC786801F07AFA3B
:1034200020E07B6893F81021134B1B789A4215D04B
:103430007B6893F8103178681946FEF757FC0E4BFD
:103440001A787B6883F810210B4B1B787868194633
:10345000FEF734FC786801F05DFA03E0786801F06B
:1034600059FA05E004E07868396800F035F900BFE2
:103470000837BD4680BD00BF7401002080B582B012
:1034800000AF786039603B68DB88012B04D0786836
:10349000396800F021F91BE07B6893F81231022BA8
:1034A00002D0032B06D00EE078680B49012201F010
:1034B000E9F90DE07B6803F5887378681946012205
:1034C00001F0E0F904E07868396800F005F900BF20
:1034D0000837BD4680BD00BF6C01002080B582B0BA
:1034E00000AF786039607B6893F81231023B012BA2
:1034F00011D87B68D3F81431002B03D00A4B032278
:103500001A6002E0084B01221A607868064901221D
:1035100001F0B8F904E07868396800F0DDF800BF20
:103520000837BD4680BD00BF7001002080B584B063
:1035300000AF786039600023FB733B685B88012B28
:103540000ED17B680122C3F814217B68D3F8E035E3
:103550009B68786839689847786801F0DBF948E03B
:103560003B685B88022B44D13B689B88DBB2002B15
:103570003FD17B681B695B68BB603B689B881B0A0B
:103580009BB2FB73FB7B013B042B2BD801A252F8AF
:1035900023F000BFA9350008B5350008C135000883
:1035A000CD350008D93500083B7A012262F30613B5
:1035B0003B7217E03B7A022262F306133B7211E082
:1035C0003B7A032262F306133B720BE03B7A042240
:1035D00062F306133B7205E03B7A052262F30613A1
:1035E0003B7200BF7B681B69BA685A60786801F05B
:1035F00091F91037BD4680BD80B582B000AF7860CC
:1036000039607B6893F81231023B012B13D83B6879
:103610005B88012B0ED17B680022C3F814217B68E4
:10362000D3F8E0359B68786839689847786801F086
:1036300071F905E004E07868396800F04DF800BFE2
:103640000837BD4680BD00BF80B483B000AF78604E
:1036500039607B6893F8C8253B681A707B6893F8DB
:10366000C9253B685A707B6893F8CA359AB27B6863
:1036700093F8CB359BB21B029BB213449AB23B68C2
:103680005A807B6893F8CC359AB27B6893F8CD3535
:103690009BB21B029BB213449AB23B689A807B6830
:1036A00093F8CE359AB27B6893F8CF359BB21B0264
:1036B0009BB213449AB23B68DA803B68DB881A46B7
:1036C0007B68C3F83C217B68012283F811210C3709
:1036D000BD465DF8047B704780B582B000AF78606E
:1036E00039603B681B78DBB25BB2002B04DA786888
:1036F000802101F01BF80CE03B68DB88002B04D133
:103700007868802101F012F803E07868002101F068
:103710000DF87868FDF7A2FE0837BD4680BD00BFF2
:1037200080B586B000AFF860B9607A600023FB75A1
:10373000FB68002B33D0F86800F034F803460133FF
:103740009BB25B009AB27B681A80FB7D5A1CFA75AB
:103750001A46BB6813447A681288D2B21A70FB7D8D
:103760005A1CFA751A46BB68134403221A7012E0F9
:10377000FB7D5A1CFA751A46BB681A44FB68591C33
:10378000F9601B781370FB7D5A1CFA751A46BB68EA
:10379000134400221A70FB681B78002BE8D11837FD
:1037A000BD4680BD80B485B000AF78600023FB7358
:1037B00005E0FB7B0133FB737B6801337B607B6837
:1037C0001B78002BF5D1FB7B18461437BD465DF8FE
:1037D000047B704780B586B000AF786000237B61C2
:1037E0007868FDF771F80346002B00F09C8078683C
:1037F000FDF77CF803463B613B69002B01D10023B8
:1038000092E0BB7C03F00803DBB2002B06D07868A3
:1038100000F012FA02467B6913437B61BB7C03F024
:103820000403DBB2002B06D0786800F00FF90246E3
:103830007B6913437B613B7C03F00203DBB2002B0B
:1038400009D00023FB603B7B43F002033B737B68A2
:10385000DB68FA685A61FB7C23F07F03DBB2002B44
:1038600006D0786800F064F802467B6913437B61F8
:103870007B7C03F00803DBB2002B06D0786800F0F5
:1038800097F802467B6913437B613B7C03F0080396
:10389000DBB2002B06D0786800F08AFA02467B691A
:1038A00013437B613B7C03F01003DBB2002B06D09B
:1038B000786800F097FA02467B6913437B617B7C52
:1038C00003F01003DBB2002B06D0786800F07EFB1B
:1038D00002467B6913437B617B7C03F02003DBB2F0
:1038E000002B06D0786800F00DFC02467B6913437C
:1038F0007B61BB7C03F01003DBB2002B06D0786841
:1039000000F03CFC02467B6913437B61BB7C03F007
:103910002003DBB2002B06D0786800F049FC024699
:103920007B6913437B617B6918461837BD4680BDB0
:1039300080B586B000AF78607B689B7A002B11D091
:103940007B6803F586731B68FB603B7B6FF3410369
:103950003B733B7B6FF300033B737B68D3F80C3105
:10396000FA681A6000233B613B7C43F001033B741F
:103970007B681B697A68126951683A69D2430A40C8
:103980005A600A4B1B689B697868984700237B61E3
:10399000FB7D43F08003FB757B68DB687A695A61C5
:1039A000012318461837BD4680BD00BFCC0000205B
:1039B00080B586B000AF7860224B1B685B69786881
:1039C00098477B681B699B68FB6000237B617B7D5C
:1039D00043F008037B757B68DB687A695A617B6812
:1039E0009B7A002B29D03B7B03F00103DBB2002B39
:1039F00023D000233B613B7C43F001033B747B6895
:103A0000D3F80C317A68D2F80C2111683A690A436C
:103A10001A603B7C43F002033B747B68D3F80C31A3
:103A20007A68D2F80C2111683A690A431A60064A8A
:103A3000054B1B6943F00603136101231846183731
:103A4000BD4680BDCC00002000ED00E080B586B012
:103A500000AF786000233B610023BB607868FDF70E
:103A6000E7FC7861DCE07B6903F00103002B00F0E8
:103A7000D1803B69DBB27868194600F0B3FB03469E
:103A8000BB603B7A03F00103DBB2002B32D03B6911
:103A9000012202FA03F3FB607B681B697A681269F2
:103AA000516BFA68D2430A405A630023BB603B7AE9
:103AB00043F001033B727A683B6904339B00134473
:103AC0009B68BA689A605B4B1B685B683A69D2B2C4
:103AD0007868114698477B68DB78012B0AD13B69EF
:103AE000002B07D17B6893F81131042B02D1786841
:103AF000FDF7B4FC3B7A03F00403DBB2002B0DD0DE
:103B00000023BB603B7A43F004033B727A683B6955
:103B100004339B0013449B68BA689A603B7A03F0B5
:103B20000803DBB2002B0DD00023BB603B7A43F0CF
:103B300008033B727A683B6904339B0013449B681B
:103B4000BA689A603B7A03F01003DBB2002B0DD009
:103B50000023BB603B7A43F010033B727A683B69F9
:103B600004339B0013449B68BA689A603B7A03F065
:103B70002003DBB2002B0DD00023BB603B7A43F067
:103B800020033B727A683B6904339B0013449B68B3
:103B9000BA689A603B7A03F04003DBB2002B0DD089
:103BA0000023BB603B7A43F040033B727A683B6979
:103BB00004339B0013449B68BA689A603B7A03F015
:103BC0000203DBB2002B0DD00023BB603B7A43F035
:103BD00002033B727A683B6904339B0013449B6881
:103BE000BA689A603B7A23F07F03DBB2002B11D0D6
:103BF0007868396900F078F90023BB603B7A43F0BC
:103C000080033B727A683B6904339B0013449B68D2
:103C1000BA689A603B6901333B617B695B087B61F1
:103C20007B69002B7FF41FAF012318461837BD4670
:103C300080BD00BFCC00002080B586B000AF7860AA
:103C400000233B610023FB607868FDF7BFFB7861D0
:103C5000A3E07B6903F00103002B00F098803B692F
:103C6000DBB278681946FDF7C7FB0346FB603B7B78
:103C700003F00103DBB2002B48D00023FB603B7B49
:103C800043F001033B737A683B6914339B00134490
:103C90005B68FA689A607B68DB78012B1FD17A68D1
:103CA0003B6914339B0013445B681B69BB607968F4
:103CB0003A6913469B001344DB000B4403F55E7323
:103CC0001B68BA68C2F31202991A78683A691346F7
:103CD0009B001344DB00034403F562731960334B0C
:103CE0001B681B683A69D2B27868114698477B68AE
:103CF000DB78012B0AD13B69002B07D17B6893F855
:103D00001131052B02D17868FDF7A8FB3B7B03F04E
:103D10000203DBB2002B0DD00023FB603B7B43F0A2
:103D200002033B737A683B6914339B0013445B685E
:103D3000FA689A603B7B03F00403DBB2002B0DD0E2
:103D40000023FB603B7B43F004033B737A683B69D1
:103D500014339B0013445B68FA689A603B7B03F062
:103D60000803DBB2002B12D0104B1B689B687868ED
:103D700098470023FB603B7B43F008033B737A6862
:103D80003B6914339B0013445B68FA689A603B6993
:103D900001333B617B695B087B617B69002B7FF4AE
:103DA00058AF012318461837BD4680BDCC0000200F
:103DB00080B584B000AF7860094B1B68DB68786819
:103DC00098470023FB603B7B43F008033B737B6811
:103DD000DB68FA685A61012318461037BD4680BD7A
:103DE000CC00002080B586B000AF786000233B6136
:103DF0003B7C43F010033B747B68DB687A68D268D5
:103E000091693A69D2430A409A617B68DB681B6A10
:103E1000FB603B7BC3F30303DBB21A4613469B00F4
:103E20001344DB0003F55C737A6813447B61BB7B4E
:103E3000C3F34303DBB2013B052B47D801A252F881
:103E400023F000BFCD3E00085D3E0008CD3E0008D7
:103E5000CD3E0008CD3E0008A93E0008BA8947F6CD
:103E6000F07313409BB2002B1DD07B69DA68BB89CD
:103E7000C3F30A139BB2786811461A46FCF76AFA34
:103E80007B69DB68BA89C2F30A1292B21A447B6971
:103E9000DA607B699B69BA89C2F30A1292B21A444A
:103EA0007B699A6113E012E07B6803F5B963786877
:103EB00019460822FCF74EFA7B699B69BA89C2F35E
:103EC0000A1292B21A447B699A6100E000BF7B68D3
:103ED000DB687A68D26891693A690A439A6101237A
:103EE00018461837BD4680BD80B586B000AF7860F3
:103EF000396000237B610023BB603A6813469B0056
:103F00001344DB0003F58C737A681344FB60FB6891
:103F10005A69FB689B69D31A7B61FB689A687B6965
:103F20009A4202D2FB689B687B617B6903339B08E2
:103F30003B617A683B6804339B0013449B689B6930
:103F4000BB602EE0FB685A69FB689B69D31A7B61F2
:103F5000FB689A687B699A4202D2FB689B687B6126
:103F60007B6903339B083B61FB68D9683B68DAB225
:103F70007B699BB27868FCF7B1F9FB68DA687B690A
:103F80001A44FB68DA60FB689A697B691A44FB682B
:103F90009A617A683B6804339B0013449B689B6971
:103FA000BB603B891A463B699A4209D9FB689A690A
:103FB000FB685B699A4203D2FB685B69002BC1D145
:103FC000012318461837BD4680BD00BF80B58AB0B2
:103FD00000AF786000233B6100233B620023FB615C
:103FE0000023BB6100237B610023FB603B7C43F02B
:103FF00001033B747B681B697A68126951683A69EE
:10400000D2430A405A6078680021FCF7AFFB0023D6
:104010007B6212E07A687B6A04339B0013449B68DE
:10402000FF229A607A687B6A14339B0013445B68B2
:10403000FF229A607B6A01337B627B685B781A4659
:104040007B6A9A42E6D87B681B694FF0FF329A611F
:1040500001233B8401237B847B681B693A6ADA6114
:104060003B7F43F008033B773B7F43F001033B7703
:104070003B7F43F004033B773B7F43F002033B77F6
:104080007B681B69FA695A613B7E43F001033B760A
:104090003B7E43F008033B763B7E43F002033B76D6
:1040A0003B7E43F004033B763B7E43F020033B76AC
:1040B0007B681B69BA691A617B681B691B687B6135
:1040C000BB8A6FF30A13BB827B681B697A691A602B
:1040D0007868FDF7C3F90023FB607B7B43F0100396
:1040E0007B737B68DB68FA685A61054B1B681B6948
:1040F00078689847012318462837BD4680BD00BF21
:10410000CC00002080B584B000AF78607868FCF700
:10411000C3FD7B68DB68DB68BB607868FCF798FDF3
:104120000346032B0CD17B6800229A707B684FF406
:1041300000729A807B7A092262F385037B720AE01F
:104140007B6801229A707B6840229A807B7A0522E4
:1041500062F385037B727B68DB68BA68DA600023F0
:10416000FB607B7B43F020037B737B68DB68FA6832
:104170005A61012318461037BD4680BD80B584B012
:1041800000AF78600023FB60084B1B68DB69786830
:104190009847BB7B43F01003BB737B68DB68FA680E
:1041A0005A61012318461037BD4680BDCC0000205F
:1041B00080B584B000AF78600023FB60084B1B68BB
:1041C0001B6A78689847BB7B43F02003BB737B680E
:1041D000DB68FA685A61012318461037BD4680BD76
:1041E000CC00002080B487B000AF78600B46FB7035
:1041F0007B681B691B697B617B681B695B6B3B612F
:10420000FB783A6922FA03F3DB01DBB27A691343E4
:104210007B61FB787A6804339B0013449B689A683F
:104220007B691340FB60FB6818461C37BD465DF890
:10423000047B704780B485B000AF78600023FB60DA
:10424000344BFB607B689B79002B4FD03149314B5D
:104250001A687B681B68DB4313400B602D492D4BAC
:104260005A687B681B68DB4313404B607B681B7993
:104270001A46FB681344FB60FB68FA6811687A68A9
:1042800012680A431A602349224B9A687B681B68AC
:10429000DB4313408B601F491E4BDA687B681B6849
:1042A000DB431340CB607B685B79102B0ED119493F
:1042B000184B9A687B681B6813438B601549154B34
:1042C000DA687B681B681343CB601DE0114BFB6011
:1042D0007B685B791A46FB681344FB60FB68FA68ED
:1042E00011687A6812680A431A600DE07B681B79CE
:1042F0001A46FB681344FB60FB68FA6811687A6829
:104300001268D2430A401A601437BD465DF8047B38
:10431000704700BF003C014080B483B000AF7860BC
:10432000034A7B6853610C37BD465DF8047B7047D8
:10433000003C014080B483B000AF7860054A7B68E0
:1043400043F0BF6343F40033D3600C37BD465DF8E0
:10435000047B704700ED00E080B485B000AF78606A
:104360000023FB730023BB730F237B737B68DB7815
:10437000002B38D0264BDB68DB4303F4E0631B0AD9
:10438000FB73FB7BC3F10403BB737A7BFB7B42FAB9
:1043900003F37B737B685B781A46BB7B02FA03F3FB
:1043A000FB737B689A787B7B1340DAB2FB7B134309
:1043B000FB73FB7B1B01FB73164A7B681B78134462
:1043C000FA7B83F80023134A7B681B785B09DBB216
:1043D00018467B681B7803F01F03012101FA03F3E1
:1043E00042F820300FE00B497B681B785B09DBB299
:1043F00018467B681B7803F01F0301229A4000F1E6
:10440000200341F823201437BD465DF8047B704734
:1044100000ED00E000E100E080B584B000AF78601E
:104420000B46FB70FB7878681946FBF7BFFF7B688B
:10443000012283F812217B68002283F813210023D4
:10444000FB6023E0FA6813469B001344DB0003F58E
:104450008C737A681344BB60BB6801225A70FB6896
:10446000DAB2BB681A70FB689AB2BB68DA80BB68C4
:104470000022DA70BB6840229A60BB680022DA60D2
:10448000BB6800225A61FB680133FB607B685B7884
:104490001A46FB689A42D5D80023FB6023E0FA68ED
:1044A00013469B001344DB0003F55C737A681344E6
:1044B000BB60BB6800225A70FB68DAB2BB681A7036
:1044C000FB689AB2BB68DA80BB680022DA70BB680E
:1044D00040229A60BB680022DA60BB6800225A6101
:1044E000FB680133FB607B685B781A46FB689A4285
:1044F000D5D87868FCF71EF97868FCF711F8786869
:104500000021FCF7A1F97868FCF724FA7868FCF739
:10451000F5F81037BD4680BD80B584B000AF786037
:10452000084611461A460346FB700B463B8013466D
:10453000BB70FB785BB2002B0CDAFB7803F07F02D8
:1045400013469B001344DB0003F58C737A68134415
:10455000FB600BE0FB7803F07F0213469B001344E3
:10456000DB0003F55C737A681344FB60FB7803F0AF
:104570007F03DAB2FB681A70FB78DB09DBB21A46FC
:10458000FB685A703A88FB689A60FB68BA78DA7000
:10459000FB685B78002B04D0FB681B789AB2FB6841
:1045A000DA80BB78022B02D1FB6800221A7178688E
:1045B000F968FCF7ADFB002318461037BD4680BDF7
:1045C00080B584B000AF78600B46FB70FB785BB2BF
:1045D000002B0CDAFB7803F07F0213469B00134498
:1045E000DB0003F58C737A681344FB600BE0FB7807
:1045F00003F07F0213469B001344DB0003F55C735A
:104600007A681344FB60FB7803F07F03DAB2FB683F
:104610001A70FB78DB09DBB21A46FB685A707868BF
:10462000F968FCF7E3FB002318461037BD4680BD50
:1046300080B586B000AFF8607A601A460B46FB7210
:1046400013463B81FB7A03F07F0213469B00134421
:10465000DB0003F55C73FA6813447B617B697A685D
:10466000DA603A897B695A617B6900229A617B69C9
:1046700000225A70FB7A03F07F03DAB27B691A706A
:10468000FB68DB78012B02D17A687B691A617B6950
:104690001B78002B04D1F8687969FCF72DFD03E045
:1046A000F8687969FCF7E8FB002318461837BD461F
:1046B00080BD00BF80B586B000AFF8607A603B6017
:1046C0000B46FB72FB7A03F07F0213469B001344F8
:1046D000DB0003F58C73FA6813447B617B6901226C
:1046E0005A70FB7A03F07F03DAB27B691A707B6938
:1046F0007A68DA607A687B691A617B6900229A615C
:104700007B693A685A617B691B78002B04D1F86891
:104710007969FCF7F1FC03E0F8687969FCF7ACFB18
:10472000002318461837BD4680BD00BF80B584B051
:1047300000AF78600B46FB70FB785BB2002B0CDAA5
:10474000FB7803F07F0213469B001344DB0003F564
:104750008C737A681344FB6009E0FA7813469B0077
:104760001344DB0003F55C737A681344FB60FB6859
:1047700001229A70FB7803F07F03DAB2FB681A70AB
:10478000FB78DB09DBB21A46FB685A707868F96877
:10479000FCF79CFD002318461037BD4680BD00BFC6
:1047A00080B584B000AF78600B46FB70FB785BB2DD
:1047B000002B0CDAFB7803F07F0213469B001344B6
:1047C000DB0003F58C737A681344FB6009E0FA7828
:1047D00013469B001344DB0003F55C737A681344B3
:1047E000FB60FB6800229A70FB7803F07F03DAB26B
:1047F000FB681A70FB78DB09DBB21A46FB685A705B
:104800007868F968FCF7A6FD002318461037BD4606
:1048100080BD00BF80B582B000AF78600B46FB70F2
:10482000FB785BB2002B07DAFB7803F07F03786834
:104830001946FBF79BFF02E07868FBF7D5FF0023E2
:1048400018460837BD4680BD80B485B000AF78609B
:104850000B46FB700023FB60FB7803F07F03DAB2AA
:10486000BB8962F30A13BB817B681B697A68126992
:104870001168FA680A431A601437BD465DF8047B74
:10488000704700BF80B586B000AFF860B9601346CE
:10489000FB800023FB75FA88FB68C3F83821FA888F
:1048A000FB68C3F83421FB68022283F81121FB88DE
:1048B000F8680021BA68FFF7FDFEFB7D184618373F
:1048C000BD4680BD80B586B000AFF860B9601346C4
:1048D000FB800023FB75FB88F8680021BA68FFF7AE
:1048E000E9FEFB7D18461837BD4680BD80B586B011
:1048F00000AFF860B9601346FB800023FB75FB88AE
:10490000F8680021BA68FFF793FEFB7D1846183758
:10491000BD4680BD80B584B000AF78600023FB73D6
:104920007B68042283F8112178680021002200238B
:10493000FFF7C0FE7868FCF791FDFB7B1846103747
:10494000BD4680BD80B584B000AF78600023FB73A6
:104950007B68052283F8112178680021002200235A
:10496000FFF766FE7868FCF779FDFB7B1846103789
:10497000BD4680BD001000200040008008000000FF
:10498000080000000800000008000000010000000E
:104990000100000001000000000000000000000015
:1049A0000600000048494420492F4F20696E2048E6
:1049B00053204D6F6465000048494420492F4F2023
:1049C000696E204653204D6F6465000053544D6955
:1049D00063726F656C656374726F6E6963730000F8
:1049E0003030303030303030303131440000000071
:1049F0003030303030303030303131450000000060
:104A000048494420436F6E66696700004849442066
:0A4A1000496E74657266616365000B
:104A1A00211500082D150008411500084D1500083C
:104A2A00591500080000000000000000000C0240B8
:104A3A00000C0240000C0240000C02400000024040
:104A4A0029170008691700089117000800000000DC
:104A5A0000000000E9180008091900080000000019
:104A6A000000000000000000C51800080902290023
:104A7A00010100E0320904000002030000000921DC
:104A8A0000020001221700070581033F0001070504
:104A9A0001033F0001000000058C0901A101090181
:104AAA00150025FF953F7508810209029102C00091
:104ABA00351A0008011B0008C9190008911C0008D2
:104ACA00051C00086D1C0008491C0008151D00087B
:104ADA00351D00080000000000000000A0000020B2
:104AEA00D5250008F92500085D2600081D260008BE
:104AFA0085260008C52600080127000812010002C1
:104B0A000000004077042056000201020301000061
:104B1A000A06000200000040010000000403090424
:0400000508000000EF
:00000001FF
